S0250000626F6F746C6F616465722D756172742D62676170692D636F6D62696E65642E7333371D
S3150FE100000F4880F308880F4800470000B905E10F54
S3150FE10010B905E10FB905E10FB905E10FB905E10F32
S3150FE10020B905E10FB905E10FD405E10FB905E10F07
S3150FE10030B905E10FB905E10FB905E10FB905E10F12
S3150FE10040007C00206D05E10F10B5054C237833B91F
S3150FE10050044B13B10448AFF300800123237010BDA5
S3150FE100601401002000000000E805E10F084B10B570
S3150FE100701BB108480849AFF300800848036803B984
S3150FE1008010BD074B002BFBD0BDE81040184700BF52
S3150FE1009000000000E805E10F180100201001002023
S3150FE100A000000000034AD2F8883043F47003C2F827
S3150FE100B08830704700ED00E00E4A0F4BD969C9074A
S3150FE100C002D58AB1013AF8E772B101221861DA6015
S3150FE100D0DB6913F006000AD05A0707D413F0020FB3
S3150FE100E00CBF0020FE2002E0FD2000E0FF2040B221
S3150FE100F0704700BF8096980000000E4030B509B9F1
S3150FE10100002037E092B91C4B50F822409C6108243D
S3150FE10110DC601A4B0132184CE469E50702D543B3AB
S3150FE10120013BF8E72BB38A42EDD1E9E7EFF310850F
S3150FE1013072B60022104BDC69240706D4DC6904F0A1
S3150FE101401904102C08BFDC60F4E750F822409C61DB
S3150FE10150013210248A42DC60ECD105B962B6074B55
S3150FE10160054AD269D20702D51BB1013BF8E7002B4D
S3150FE10170C6D1FD2040B230BD00000E4080969800FA
S3150FE101802DE9F8431F46194B8846596818495B68AC
S3150FE101908B6843F0010306468B6095084FF0000923
S3150FE101A0A94519D206EB89042046FFF785FFC8B9A1
S3150FE101B0C4F30A04C4F50064A408C9EB05039C4221
S3150FE101C028BF1C46404621463A46FFF797FF20B91E
S3150FE101D0A14408EB8408E3E70020054A936823F07E
S3150FE101E00103936040B2BDE8F88300BF00300E40D3
S3150FE101F000000E401A4B5A685B681A4B9A6842F038
S3150FE1020001029A6001221861DA60DA69510705D5B0
S3150FE102109A6822F001029A60FF201FE0DA699207DD
S3150FE1022005D59A6822F001029A60FE2016E00222B5
S3150FE10230DA600D4A0B4BD86910F00100194602D06E
S3150FE1024012B1013AF6E72AB98B6823F001038B6005
S3150FE10250FD2003E09A6822F001029A6040B27047EE
S3150FE1026000300E4000000E40809698000023FFF705
S3150FE1027087BF000008B5094B1A68094B1A60094B8D
S3150FE1028040221A615A685203FCD400F069F800283B
S3150FE10290FBD040F2022000F08DF800BF04010020F0
S3150FE102A00001002000300E4008B500F0A3F80D4B19
S3150FE102B05B68B3F5803F09D040F20923984202D03B
S3150FE102C0B0F5007F02D100F013F850B9064B074A9B
S3150FE102D093601A6882F3088882F309885B68984706
S3150FE102E0FEE708BD00500E400008E10F00ED00E00B
S3150FE102F0174B1B68186970B5846ADE68B44201D280
S3150FE10300002070BD06F510439C42F9D20444A41BAC
S3150FE10310104B22689A42F3D1E1684FF0FF3200F0B9
S3150FE1032017F90D4B98420546EAD10C4BA1681B68AC
S3150FE103309A68914209D83046D9684FF0FF3200F0FA
S3150FE1034007F9401B18BF012070BD012070BD00BF2A
S3150FE103502800E10F07B0CD5EE320BBDE2808E10FF1
S3150FE10360F8B5114B1B681F69DC68BB6A3B441D1B63
S3150FE103702646EA68A3189E4205D2304600F083F876
S3150FE1038006F50066F5E73946204600F08AF8074B91
S3150FE103901B682046D9684FF0FF3200F0D9F8044BBD
S3150FE103A0C31A58425841F8BD2800E10F2808E10F5A
S3150FE103B0E320BBDE4FF000534FF20F025A800A4A99
S3150FE103C01880136823F4E06343F480631360BFF38B
S3150FE103D04F8F0649064BCA6802F4E0621343CB60BE
S3150FE103E0BFF34F8F00BFFDE700500E4000ED00E079
S3150FE103F00400FA054FF000534FF20F015A888A4273
S3150FE1040001D1188870473AB91B88012B40F20220B7
S3150FE1041018BF4FF4007070474FF40070704700003B
S3150FE10420044B41F671321A649A6822F001029A601E
S3150FE10430704700BF00000E40034B9A6822F001029D
S3150FE104409A6000221A64704700000E4013B58307C5
S3150FE1045045BF09046FEA11416FEA01416FEA0141B4
S3150FE1046058BF6FEA114120F003040191FFF7D8FF5E
S3150FE1047001A904222046FFF7F9FE0446FFF7DCFF48
S3150FE10480204602B010BD10B50446FFF7C9FF20465E
S3150FE10490FFF7B0FE0446FFF7CFFFB4FA84F0400949
S3150FE104A010BD40EA02032DE9F0411446DA0705468D
S3150FE104B00E4602D50020BDE8F08114B90120BDE852
S3150FE104C0F081830728D50988FFF7C0FF0028F1D10E
S3150FE104D0023C032C05F1020506F1020611D924F0BF
S3150FE104E00307FFF79DFF284631463A46FFF7BEFE63
S3150FE104F08046FFF7A1FFB8F1000FDBD13E443D4443
S3150FE10500E41B002CDAD028463188FFF79FFFB0FABB
S3150FE1051080F04009BDE8F081032CF4D9DFE7000054
S3150FE10520484010B5C0B20C0A082310F0010F4FEA8C
S3150FE10530500218BF054803F1FF3314BF5040104670
S3150FE1054013F0FF03F1D1604010BD00BF2083B8ED7A
S3150FE1055038B504464518AC4206D0114614F8010BDE
S3150FE10560FFF7DEFF0246F6E7104638BD0B48804738
S3150FE105700B4880470B490C4A0C4B9A42BEBF51F8C8
S3150FE10580040B42F8040BF8E709490A4A00209142A5
S3150FE10590BCBF41F8040BFAE7FFF76CFEA500E10FCC
S3150FE105A0A902E10FEC05E10F000100201401002083
S3150FE105B01401002030010020FEE700BFF8B500BFAF
S3150FE105C0F8BC08BC9E467047F8B500BFF8BC08BC3E
S3150FE105D09E467047AD1007B001000000000005010F
S3150FE105E00008E10F0080000000000000C0EA2101D1
S3150FE105F0C0EA21016D00E10F4900E10F00000000A3
S3150FE10800007C0020F10AE10FEF0AE10F410BE10F46
S3150FE10810EF0AE10FEF0AE10FEF0AE10FEF0AE10F3E
S3150FE10820EF0AE10FEF0AE10F2432E10FEF0AE10FD1
S3150FE10830EF0AE10FEF0AE10FEF0AE10FEF0AE10F1E
S3150FE1084010B5054C237833B9044B13B10448AFF314
S3150FE1085000800123237010BD2C0100200000000051
S3150FE10860C433E10F084B10B51BB108480849AFF384
S3150FE1087000800848036803B910BD074B002BFBD076
S3150FE10880BDE81040184700BF00000000C433E10F78
S3150FE108903001002028010020000000000D4AD2F8A7
S3150FE108A0943003F00703032B0AD0042B03D0022B5A
S3150FE108B003D1094B02E0094B00E0094B186801E04F
S3150FE108C04FF40040D2F80031C3F304230133B0FBF8
S3150FE108D0F3F0704700400E400401002000010020B4
S3150FE108E00C010020034AD2F8883043F47003C2F8B2
S3150FE108F08830704700ED00E00179012203300431C1
S3150FE1090001F0B6BC01F002BC00B5A3B002F0CFFB1B
S3150FE10910B0F5027F16D168460021882202F066FC07
S3150FE10920A0238DF8033002238DF8043001238DF8CF
S3150FE10930063003238DF8073068460B238DF8083010
S3150FE10940FFF7DAFF00218822684602F04FFCA02369
S3150FE109508DF8033004238DF80430054B1B68684688
S3150FE109609B68CDF80730FFF7C7FF23B05DF804FBAF
S3150FE109702808E10F30B5ADF5277D0021882260A863
S3150FE1098002F034FC02238DF88431574B0FCB20252F
S3150FE1099004AC84E80F00002124220DEB05008DF84D
S3150FE109A0835102F023FC82A811A923AA2B4601F059
S3150FE109B043FE3EA80021882202F018FC01F094FCC8
S3150FE109C00028FBD001214FF47A750B4600950DF106
S3150FE109D0FB0003AA01F0ACFC9DF8FB30202BEDD117
S3150FE109E0012300953FA8032103AA01F0A1FC039B74
S3150FE109F0032BDED19DF8FC5075B140F6B833009369
S3150FE10A000DF1FF000123294603AA01F091FC039B97
S3150FE10A10AB42CED10028CCD19DF8FD30002BC8D109
S3150FE10A209DF8FE30032BC4D8DFE803F04A02062413
S3150FE10A3001238DF886310FE09DF8FF30009482A8EF
S3150FE10A4008A940AA01F038FE02238DF8863118B1C4
S3150FE10A5041F20703984203D100238DF8873103E072
S3150FE10A6003238DF887310B2360A88DF88831FFF7C3
S3150FE10A7043FF9EE703238DF886319DF8223033B18C
S3150FE10A809DF823301BB100238DF8873103E0032353
S3150FE10A908DF887310B2360A88DF88831FFF72CFF8E
S3150FE10AA09DF82230002B84D09DF82330002B80D087
S3150FE10AB09DF82030002B3FF47CAF40F2092007E090
S3150FE10AC09DF8223033B19DF823301BB940F2032054
S3150FE10AD002F0B8FA9DF8FF30012B0CBF40F202206D
S3150FE10AE040F20120F4E700BF1432E10F7047FEE751
S3150FE10AF008B5FFF7F7FE00F089F80A4A0A4B0B49EA
S3150FE10B008B4204D252F8041F43F8041BF7E7084B54
S3150FE10B10084A934203D2002243F8042BF8E700F088
S3150FE10B2015F800BFC433E10F000100202C010020AE
S3150FE10B302C010020E00300200020704700207047C1
S3150FE10B4008B54FF4017002F07DFA0000274B1A68E1
S3150FE10B50274B10B51A60274BDB6C1B0E0AD12649C2
S3150FE10B6026484AF6E8520A60026842F00402026039
S3150FE10B700B6001E0012B04D1214A136843F40053C2
S3150FE10B801360204A136A23F4441343F48813136260
S3150FE10B90A2F58042136843F4807313601A4B402227
S3150FE10BA01A615A685203FCD4FFF7C6FF02F043FA03
S3150FE10BB0FFF7A8FEFFF7A8FE10B14FF401700BE0A7
S3150FE10BC0FFF7D8FE0446FFF791FF1CB140F203731E
S3150FE10BD09C4203D140F2012002F034FAA4F20574EB
S3150FE10BE0012CEAD840F20320F6E700BF0C01002002
S3150FE10BF008010020B081E00F90310E4098310E4090
S3150FE10C0064310E4000400E4000300E4008B5204BD7
S3150FE10C105A68B2F5803F15D05B685B0505D400F0E5
S3150FE10C2027FF002830D101230DE002F02BFAA0F2C5
S3150FE10C30022080B20728F2D80123834013F0C90FAF
S3150FE10C40EDD021E00023012204210968013105D10C
S3150FE10C504FF40270BDE8084002F0E6B983B1002017
S3150FE10C6002F054F90028F3D00A4A0023936018469C
S3150FE10C70016881F3088881F309884068874602E0B5
S3150FE10C80002AF1D108BDFEE700231A46DCE700BFD3
S3150FE10C9000500E4000ED00E000207047484010B5CF
S3150FE10CA0C0B20C0A082310F0010F4FEA500218BF29
S3150FE10CB0054803F1FF3314BF5040104613F0FF030D
S3150FE10CC0F1D1604010BD00BF2083B8ED38B50446C1
S3150FE10CD04518AC4206D0114614F8010BFFF7DEFFBB
S3150FE10CE00246F6E7104638BDF8B504461D461646E8
S3150FE10CF00F4600F069FF079A0699204600F06AFF52
S3150FE10D000023636284F838703268C4F83920726858
S3150FE10D10C4F83D20C5F30743B26884F84530C5F3FF
S3150FE10D200723C4F8412084F8463084F84750F8BDCC
S3150FE10D3030B585B000F1280501910292194600956B
S3150FE10D4000F1240200F1380300F062FF05B030BD77
S3150FE10D50F0B50F46A3B01646044638B331B32AB3FE
S3150FE10D601448012100F0C8FC4022002102A802F03C
S3150FE10D703DFA01F0BFF9014602A800F013FB01F0BD
S3150FE10D80BDF912AD01460AA800F00CFB284639461B
S3150FE10D9000F008FB1AA8314600F004FB0095214646
S3150FE10DA0202202AB044800F00FFB01E040F20160A4
S3150FE10DB023B0F0BD0005080000000F4010B5044652
S3150FE10DC001F0BCF820460021BDE8104001F0BCB8A7
S3150FE10DD001F028B9014601F029B91C2350F8042F77
S3150FE10DE00AB9043BFAD1002BCCBF00200120704792
S3150FE10DF030B58A680D684C68CB680560046002609F
S3150FE10E0003600D694C698A69CB690560046002600C
S3150FE10E10036030BD30B50568046802680368CB60CE
S3150FE10E200D604C608A600568046802680368CB61EF
S3150FE10E300D614C618A6130BD2DE9F04104461D46D5
S3150FE10E400E46904600212022184602F0CFF90123E3
S3150FE10E502B6000F08FFC4146074604F58070FFF7E3
S3150FE10E60C7FF314604F5827004F58476FFF7C0FFBC
S3150FE10E7030462946FFF7BCFF384600F07FFC0D4BA5
S3150FE10E8023656369DB0108D40B4B23650B4B636564
S3150FE10E900B4BA3650B4BE365F3E700F06BFC2946C0
S3150FE10EA004463046FFF7B6FF2046BDE8F04100F0B5
S3150FE10EB065BC00BF39398401D02484FC1C82FED87D
S3150FE10EC08B1C81A0393801002DE9F04F8DB0044616
S3150FE10ED00F461546984600F04DFC04F5827607F16C
S3150FE10EE0400A814651463046FFF782FF04F5867385
S3150FE10EF0184629460393FFF77BFF04F588721046E0
S3150FE10F0005F120010292FFF773FF484600F036FC28
S3150FE10F10424921654249616501254249A165E56578
S3150FE10F2000F028FC04F5847907F1200B019039468E
S3150FE10F303046FFF75DFF48465946FFF759FF029ADC
S3150FE10F4051461046FFF754FFDDF804C0604600F046
S3150FE10F5015FC354A2265354A6265A56500F00AFC3E
S3150FE10F6004F5807A019008F140015046FFF752FFF0
S3150FE10F7004A94846FFF74EFF019A104600F0FEFB23
S3150FE10F8000F0F8FB039B019039461846FFF730FF57
S3150FE10F90019A104600F0F2FB254B2365254B63655D
S3150FE10FA06FF42672A3F5FE231344A365E56500F0FE
S3150FE10FB0E1FB594607463046FFF71AFF384600F080
S3150FE10FC0DDFB1D4B23651D4B6365A56500F0D2FB6C
S3150FE10FD0414607464846FFF71DFF384600F0CEFB70
S3150FE10FE000F0C8FB04A907463046FFF701FF384674
S3150FE10FF000F0C4FB124B2365124B6365A56500F048
S3150FE11000B9FB08F1200104465046FFF703FF2046DE
S3150FE1101000F0B4FB0DB0BDE8F08F00BF8AD11C81A3
S3150FE11020D91C83D11C81E11CD01482CB1481E11C24
S3150FE110308CE11C811C84D91CE014D8141482E11CA8
S3150FE1104084D31482D11CE0142DE9F04FA5B00446E8
S3150FE110501D4600928B462022002104A802F0C6F815
S3150FE1106005F120070123002120222846049305F1EB
S3150FE11070400802F0BBF800212022384602F0B6F80C
S3150FE1108000212022404602F0B1F82046052100F06A
S3150FE1109078FB00232360FF262363636306F01F01BA
S3150FE110A001238B407211009951F82220134201D18D
S3150FE110B0013EF3D100F05EFB04F5827239468146BB
S3150FE110C010460292FFF794FE484600F057FB7E4B1F
S3150FE110D023657E4B63657E4BA36500F04BFB04F501
S3150FE110E0807A14A981465046FFF794FE484600F0F0
S3150FE110F045FB00F03FFB294681465046FFF778FE58
S3150FE11100484600F03BFB734B2365734B63654FF426
S3150FE111108673A36500F02EFB04F5867901900CA981
S3150FE111204846FFF777FE1CA95046FFF773FE019B72
S3150FE11130184600F023FB00F01DFB029A0190414691
S3150FE1114010460392FFF754FE019B184600F016FB7B
S3150FE11150624B23650123636500F00CFB04F5847391
S3150FE111602946019018460293FFF742FEDDF804C0C7
S3150FE11170604600F003FB5A49216501F1D94101F5BA
S3150FE11180DE1101F595616165A1F58611A1F2BA410D
S3150FE111900123A165E36500F0EDFA029B01901CA91D
S3150FE111A01846FFF725FE0CA94846FFF721FEDDF8A5
S3150FE111B004C0604600F0E2FA4A4921654A49616591
S3150FE111C04A49A16500F0D6FA2946019004F58870DF
S3150FE111D0FFF720FEDDF804C0604600F0CFFA00F01D
S3150FE111E0C9FA039A019039461046FFF701FE029BB1
S3150FE111F041461846FFF7FCFD14A94846FFF7F8FDEF
S3150FE11200DDF804C0604600F0B9FA394B2365394B76
S3150FE11210636500F0AFFA414601905046FFF7FAFDDC
S3150FE1122039464846FFF7F6FD019B184600F0A6FA48
S3150FE11230012106F01F0301FA03F37211009951F828
S3150FE112402220134238D02B687BB92846FFF7C5FD1C
S3150FE1125058B12B6A4BB93846FFF7BFFD28B12B6C56
S3150FE112601BB94046FFF7B9FD30B9204629465A4624
S3150FE112702B46FFF729FE1FE05B462A460BF12001BD
S3150FE1128053F8040B42F8040B8B42F9D13A4603F1BA
S3150FE11290200153F8040B42F8040B8B42F9D10DF1FF
S3150FE112A0100E4246734603CB51600CA98B42106078
S3150FE112B09E4602F10802F5D116F1FF36BFF4FAAEFA
S3150FE112C025B0BDE8F08F00BF8AD11C81821CC00C0E
S3150FE112D00C0C0100C00C0C83D91C83D88AD11C835A
S3150FE112E0DA0C81148CE11CD01484E31482D11C0135
S3150FE112F0D81483D11CC00C012DE9F041044690B0FE
S3150FE113000F46244E0521904600F03BFA0023236059
S3150FE11310236363630FCE08AD0FC596E80F0085E82B
S3150FE113200F0008AA6B4607F140012046FFF784FD3F
S3150FE1133000F020FA04F586750646694604F58270D3
S3150FE11340FFF756FD28463946FFF752FD07F1200113
S3150FE1135004F58870FFF74CFD304600F00FFA0E4B9F
S3150FE1136023650E4B63650E4BA3650123E36500F021
S3150FE1137001FA08F12001064604F58070FFF74AFDF0
S3150FE1138028464146FFF746FD304600F0F7F910B023
S3150FE11390BDE8F0816432E10F8AD11C81D91C83D17A
S3150FE113A01C81E11C38B5202204460D46002101F0CF
S3150FE113B01DFF631E05F120011F3411F8012D03F8FE
S3150FE113C0012FA342F9D138BD2DE9F04FBDB0044647
S3150FE113D000929A46469E0F46002900F00381002BA4
S3150FE113E000F00081002E00F0FD80002A40F3FA8024
S3150FE113F000250560056345634368DFF80C8243F01A
S3150FE11400100343600C2100F0BCF9636823F44063D9
S3150FE1141043F400636360636823F4407343F400733A
S3150FE114206360B8E80F000DF1B00EAEE80F0098E873
S3150FE114300F008EE80F0000F09DF904F584798346DD
S3150FE114403146484604F58678FFF7D2FC2CA940468B
S3150FE11450FFF7CEFC584600F091F9654A2265012364
S3150FE1146063656169C90102D440F20260BCE003938E
S3150FE11470029200F07FF906F1200B0190594648469A
S3150FE11480FFF7B6FC40462CA9FFF7B2FC019800F036
S3150FE1149075F9039B029A226563656369DB01E3D5FF
S3150FE114A0294634A8202201F0A1FE009D202DA8BFD8
S3150FE114B02025013D013F25F003033CAA40331344A8
S3150FE114C005F0030117F8012FC90002FA01F153F8EC
S3150FE114D0602C15F1FF3542EA010243F8602CEAD29E
S3150FE114E000F048F934A905464846FFF781FC28463E
S3150FE114F000F044F93F4B236500F03CF904F58075A4
S3150FE11500074634A92846FFF785FC384600F036F939
S3150FE115102CAA04AB59462046FFF78EFC00F02AF9B8
S3150FE1152004F58877834604A904F58270FFF760FC1A
S3150FE11530384634A9FFF75CFC31464046FFF758FCC5
S3150FE11540584600F01BF92C4B236503F1FA43A3F53B
S3150FE115500063636500F00EF934A983463846FFF759
S3150FE1156059FC284604A9FFF755FC584600F006F941
S3150FE115702046224934AA0CABFFF766FD24AB204681
S3150FE11580514604AAFFF760FD0CA90A462046FFF76C
S3150FE11590B3FE24A90B4620460CAAFFF795FC24A916
S3150FE115A00A462046FFF7A8FE00F0E4F80C210546AF
S3150FE115B0204600F0E6F8484624A9FFF719FC404615
S3150FE115C03146FFF715FC284600F0D8F80C4B23659A
S3150FE115D00C4B6365636913F0807F40F2046018BFBB
S3150FE115E0002001E040F201603DB0BDE8F08F00BFA1
S3150FE115F03035DA1030D00C0130E11C84A432E10F22
S3150FE116003035DA14393801008432E10F1FB5124B48
S3150FE116101A6842F480121A60D3F8C02042F0010230
S3150FE11620C3F8C020FFF73AF94FF47A23B0FBF3F092
S3150FE116300A4B0D2218600021684601F0D7FD012300
S3150FE116408DF8003006480A2369468DF8023000F01E
S3150FE11650C8F905B05DF804FB00400E404C010020CF
S3150FE11660008001400C4A0D4B10B5546A1B68A4B2B9
S3150FE1167010FB03400A4B80B21880A042094B2CBFE6
S3150FE11680002401241C70134611B15A6A8242FCD11F
S3150FE1169001225A619A6110BD008001404C01002080
S3150FE116A050010020480100200A4B1A780A4B22B15B
S3150FE116B0D86810F0010003D17047DA68D20707D472
S3150FE116C0064A5B6A1088834234BF002001207047C7
S3150FE116D001207047480100200080014050010020A1
S3150FE116E0044BD3F84421D20703D4D3F84021104257
S3150FE116F0FBD1704700400E40C0F30322013A70B5AB
S3150FE1170003460E46092A26D8DFE802F018082525F2
S3150FE11710050B0E25111500200F4C11E000200F4C83
S3150FE117200EE001200E4C0BE010200E4C08E04FF4BA
S3150FE1173080300D4C04E000200C4C01E00C4C0020F5
S3150FE11740C3F3043508B1FFF7CBFF04F1047405EBDE
S3150FE11750C404A400266070BDB0400E40C0400E40E8
S3150FE11760E0400E40E8400E40F0400E4050410E4042
S3150FE1177000400E40EFF3108072B6704700B962B6C3
S3150FE1178070470E2910B5426810D822F01F030122C7
S3150FE117908A4047F2E004144024B940F61F7414401E
S3150FE117A024B101E043F010030B43436010BD000089
S3150FE117B0F0B542B1012430258C4045430BB1184EAB
S3150FE117C000E0184E74513024444304F18044072954
S3150FE117D004F520440CD867684FEA810E0F2505FA08
S3150FE117E00EF527EA050602FA0EF5354365600CE0BC
S3150FE117F001F18045083DA768AD000F26AE4027EA07
S3150FE11800060602FA05F53543A56042B901223024F1
S3150FE118108A4044430BB1024B00E0024B1A51F0BD33
S3150FE118200CA000460CA000440E4A0F4BD969C9071C
S3150FE1183002D58AB1013AF8E772B101221861DA608D
S3150FE11840DB6913F006000AD05A0707D413F0020F2B
S3150FE118500CBF0020FE2002E0FD2000E0FF2040B299
S3150FE11860704700BF8096980000000E4030B509B969
S3150FE11870002037E092B91C4B50F822409C610824B6
S3150FE11880DC601A4B0132184CE469E50702D543B324
S3150FE11890013BF8E72BB38A42EDD1E9E7EFF3108588
S3150FE118A072B60022104BDC69240706D4DC6904F01A
S3150FE118B01904102C08BFDC60F4E750F822409C6154
S3150FE118C0013210248A42DC60ECD105B962B6074BCE
S3150FE118D0054AD269D20702D51BB1013BF8E7002BC6
S3150FE118E0C6D1FD2040B230BD00000E408096980073
S3150FE118F02DE9F8431F46194B8846596818495B6825
S3150FE119008B6843F0010306468B6095084FF000099B
S3150FE11910A94519D206EB89042046FFF785FFC8B919
S3150FE11920C4F30A04C4F50064A408C9EB05039C4299
S3150FE1193028BF1C46404621463A46FFF797FF20B996
S3150FE11940A14408EB8408E3E70020054A936823F0F6
S3150FE119500103936040B2BDE8F88300BF00300E404B
S3150FE1196000000E401A4B5A685B681A4B9A6842F0B0
S3150FE1197001029A6001221861DA60DA69510705D529
S3150FE119809A6822F001029A60FF201FE0DA69920756
S3150FE1199005D59A6822F001029A60FE2016E002222E
S3150FE119A0DA600D4A0B4BD86910F00100194602D0E7
S3150FE119B012B1013AF6E72AB98B6823F001038B607E
S3150FE119C0FD2003E09A6822F001029A6040B2704767
S3150FE119D000300E4000000E40809698000023FFF77E
S3150FE119E087BF30B50C780CB90223436000234362FD
S3150FE119F0CB788A781B0443EA02630A7A13438A791E
S3150FE11A0043EA8223CA7943EA02234A78002A14BFBA
S3150FE11A104022002213434A7A002A14BF8022002271
S3150FE11A2013438A7A002A14BF202200221343CA7A6B
S3150FE11A30002A14BF1022002213430A79002A4A7999
S3150FE11A4014BF4FF400550025002A43EA050314BFDE
S3150FE11A504FF0805200221A430B7B002B14BF082351
S3150FE11A600023134303600CB10123436030BD000033
S3150FE11A701C4AD2F8B03043F0080313B5C2F8B030C0
S3150FE11A80032001230E210422FFF792FE0023009388
S3150FE11A90009B632B02DC009B0133F8E70123032054
S3150FE11AA00E210222FFF784FE00230193019BB3F57A
S3150FE11AB0FA7F02DA019B0133F7E70B4B03201C6830
S3150FE11AC00E2100220123FFF773FE064AD2F8B0304A
S3150FE11AD014F1FF3023F0080318BF0120C2F8B0302C
S3150FE11AE002B010BD00400E40B815144200F1047368
S3150FE11AF0102A30B54FEA43131AD101221A600D6845
S3150FE11B004C688A68CB68C0F81051C0F81041C0F82C
S3150FE11B101021C0F810310D694C698A69CB69C0F89B
S3150FE11B201051C0F81041C0F81021C0F8103130BD86
S3150FE11B3000221A600D684C688A68CB684562446278
S3150FE11B404262436230BD7FB58B07024613D00B4627
S3150FE11B506D4601F11006186859682C4603C408331F
S3150FE11B60B3422546F7D1009B1360019B1360029B9D
S3150FE11B701360039B06E00D684C688868CB681560B7
S3150FE11B8014601060136004B070BD30B50568046869
S3150FE11B9002680368880785B010D000950194039316
S3150FE11BA002926C460B4604AD224603CAAA4218605E
S3150FE11BB05960144603F10803F6D103E00D604C605A
S3150FE11BC08A60CB6005B030BD18B10021242201F047
S3150FE11BD00DBB704770B50E461546044690B189B1F7
S3150FE11BE00021242201F002FB802D02D0B5F5807F82
S3150FE11BF00BD12046314640F8045BEA0801F0EBFAD7
S3150FE11C00002070BD6FF0210070BD6FF01F0070BD39
S3150FE11C102DE9F74F80460F469A4615460AB11668E3
S3150FE11C2000E01646B8F1000F00F0AE800D9B002BD9
S3150FE11C3000F0AA800E9B002B00F0A680BAF1000FF0
S3150FE11C4000F0A2800C9B002B00F09E80D8F80030AC
S3150FE11C50802B03D0B3F5807F40F099804FF00009D8
S3150FE11C60B94580F08D8076B10C9B995D0D9B13F88C
S3150FE11C7009200E9B4A40013603F8092006F00F06AC
S3150FE11C8009F10109ECE700F089F84FF440424660AB
S3150FE11C9002600446FFF76EFDD8F80020802A0CBFDC
S3150FE11CA008221022834608F104012046FFF71EFFA2
S3150FE11CB004F18403184651460093FFF744FF584653
S3150FE11CC0FFF75CFDC9EB070222F00F0202EB090BEE
S3150FE11CD0D94544D04821A1600521A16021698A0730
S3150FE11CE0FCD40321A160FFF745FD0D9B019003EBAA
S3150FE11CF0090104F1A000FFF726FF0E9B04F1800016
S3150FE11D0003EB0901FFF741FFDDF804C06046FFF77A
S3150FE11D1035FD09F11009DBE79EB94823A3600523D9
S3150FE11D20A36023699B07FCD40323A360FFF722FD7E
S3150FE11D300C99814604F18000FFF727FF4846FFF72C
S3150FE11D401DFD0C9B0E9A995D0D9B13F80B30013619
S3150FE11D504B4002F80B3006F00F060BF1010BBB45BA
S3150FE11D60DAD1FFF707FD514681460098FFF70DFFE0
S3150FE11D704846FFF703FD204600F01AF8B9466FE72C
S3150FE11D8045B12E60002006E06FF0210003E06FF011
S3150FE11D901F0000E0284603B0BDE8F08F024B034871
S3150FE11DA001221A60704700BF0016C84300000F40BA
S3150FE11DB00A4B984204D003F58063984202D07047EC
S3150FE11DC0002200E00122064B03EBC2035A68054BE2
S3150FE11DD013449B0000221A60704700BF00000F40BA
S3150FE11DE0E432E10F8005F2108A68CB6830B50D68F1
S3150FE11DF04C6805600460026003600D694C698A698D
S3150FE11E00CB6905600460026003600D6A4C6A8A6AF9
S3150FE11E10CB6A05600460026003600D6B4C6B8A6BE5
S3150FE11E20CB6B056004600260036030BD2DE9F047BE
S3150FE11E3090B00546894690461F46FFF7AFFF044629
S3150FE11E4027B1012F73D10423036000E00760002758
S3150FE11E506760E764636823F44063636027636763DE
S3150FE11E60FFF788FC6A68A968EB682E68C4F8046115
S3150FE11E70C4F80421C4F80411C4F80431EB696A69A2
S3150FE11E80A9692E69C4F80461C4F80421C4F80411E0
S3150FE11E90C4F80431FFF772FC264B236547454E46DE
S3150FE11EA026D016F0030F06F1400912D06A463068C4
S3150FE11EB07168134603C308364E451A46F7D1FFF745
S3150FE11EC059FC6946064604F5D270FFF78DFF304699
S3150FE11ED008E0FFF74FFC3146824604F5D270FFF773
S3150FE11EE083FF5046FFF74AFC134B23650137D5E7CE
S3150FE11EF0FFF740FCD4F80061D4F80011D4F80021C3
S3150FE11F00D4F80031EB602E606960AA60D4F8006105
S3150FE11F10D4F80011D4F80021D4F80031EB612E6129
S3150FE11F206961AA61FFF72AFC2046FFF741FF10B06E
S3150FE11F30BDE8F087888AC801070D810118B1002134
S3150FE11F406C2201F053B97047002330B50362436247
S3150FE11F5081B1104C012380F8683004F12005034666
S3150FE11F60224603CAAA4218605960144603F10803D0
S3150FE11F70F6D130BD084C80F86810034604F1200510
S3150FE11F80224603CAAA4218605960144603F10803B0
S3150FE11F90F6D130BDF432E10F5433E10F012213468E
S3150FE11FA0FFF744BF036A2DE9F04103F03F05134400
S3150FE11FB0934203623CBF436A013306460F4614461A
S3150FE11FC038BF436295B1C5F1400842450ED305F1DD
S3150FE11FD028004246304401F0FEF8304606F128016A
S3150FE11FE0FFF7DCFF4744C8EB040400253F2C0DD96E
S3150FE11FF04FEA94183946424630464FEA881801238C
S3150FE12000FFF714FF4744C8EB0404EFE744B105F1CA
S3150FE120102800304439462246BDE8F04101F0DBB8ED
S3150FE12020BDE8F0810AB1FFF7BDBF704737B5026A68
S3150FE120300D46416A530F43EAC1030446180ED10018
S3150FE120408DF80000180C02F03F028DF801008DF8B3
S3150FE120500330180A0B0E372A8DF804304FEA114375
S3150FE1206094BFC2F13802C2F178028DF802008DF801
S3150FE1207005308DF807100B0A20460F498DF806300B
S3150FE12080FFF7D0FF204608226946FFF78BFF94F84A
S3150FE1209068002A460028A2EB050314BF1C21202164
S3150FE120A08B4206D29B0854F823301BBA42F8043B05
S3150FE120B0F0E703B030BD00BF1433E10F00207047E6
S3150FE120C0002070470020704700207047014B1B68C6
S3150FE120D0186970472808E10F044B054A1B68196810
S3150FE120E091420CBF18690020704700BF2800E10F2D
S3150FE120F0AD1007B0004870474A43E00F00487047FC
S3150FE121006A43E00F004870478642E00F38B5394819
S3150FE12110394D0121FFF7F0FA38480121FFF7ECFAC3
S3150FE1212037480121FFF7E8FA36480121FFF7E4FACC
S3150FE1213040F6AA630024EB60334A2C6041F20503B3
S3150FE121406C666B60AC606C61EC64AA646C67AC67DF
S3150FE12150EC676B602B682B602C4B2D4AD3F89410F0
S3150FE121602C4B012908BF134603F5E1434FF4E11266
S3150FE121705B01B3FBF2F3284A203BDB001A406A61AD
S3150FE121802046214604220123FFF712FB01210A46CD
S3150FE121900B462046FFF70CFB03210523AC67696766
S3150FE121A0EB601E4B4FF0E0621A604FF440221C6267
S3150FE121B0DC625C63DC66C3F88020194AC3F88840A9
S3150FE121C022F00302C3F88440C3F89820154AC3F8F6
S3150FE121D0B020154AC3F8B840C3F8B44011600122E4
S3150FE121E0DA6303F1C0630833022119600F4B1A70EA
S3150FE121F038BD00BF40410500000001400035080031
S3150FE122000055080000420400F9FF010000400E40AE
S3150FE12210C0EA210100F04902F8FF7F0000200E40DD
S3150FE122207433E10F01000C0028200E4458030020FF
S3150FE122300B4B986A10F0020007D00A4A022313608B
S3150FE122409360094B00221A6008E01B6A13F0020340
S3150FE1225005D1064A02211160034A13600120704736
S3150FE1226000200E4020200E44DC03002028200E44DF
S3150FE122707F2970B506460C46154625D8FFF7D8FFD8
S3150FE1228028B3144B1C600023A34204D0124AF15C1D
S3150FE1229099540133F8E711490888013B63F30E10AE
S3150FE122A00F4B0880022221F00301C3F8C810DA634D
S3150FE122B00DB9002070BDFFF7BBFF0028FBD0094B1E
S3150FE122C01B699B06FBD5F4E741F2031070BD41F2A2
S3150FE122D0062070BDDC030020590300201001002009
S3150FE122E000200E40000001400E4BD3F8943040F22F
S3150FE122F00112934206D040F20222934204D00A48D9
S3150FE123001B1A03E0002301E04FF48073074A1068BC
S3150FE12310984205D02ABFC0F50070181AC018704749
S3150FE123200020704700200E40580100205401002084
S3150FE12330F8B5069E04460D4617463BB9FFF7D4FF9F
S3150FE12340854216D9FFF7D0FF054612E03EB1FFF7FA
S3150FE123505DF930460021FFF785F900E026B9FFF771
S3150FE12360C3FFA842FAD3E9E7FFF79EF90028F6D0B3
S3150FE12370E4E70F4A136820466119884213D00D4CE2
S3150FE12380E45C00F8014B0133B3F5007F04D10A4B4E
S3150FE1239002241C600023F0E7B3F5807F02BF064CF1
S3150FE123A001262660E9E7136007B13D600020F8BD1D
S3150FE123B0540100205801002008200E4610B54B6845
S3150FE123C08C689C421ED290F84020121B1344402B7E
S3150FE123D018D88B684A68934212D20A6890F841403E
S3150FE123E0D25C90F84030234403F03F03C2548B682C
S3150FE123F001338B6090F84030013380F84030E8E7E5
S3150FE12400012010BD002010BDF8B517468D684A684A
S3150FE12410551B90F840202A449A4204460E4608D2AC
S3150FE12420FFF7CCFF68BB122384F8463041F2020076
S3150FE12430F8BD002594F84020E2B19D421AD094F8F8
S3150FE124404120A25C7A5594F84120013202F03F0215
S3150FE1245084F8412094F84020013A84F84020013570
S3150FE12460E8E79D420AD231688A5C7A55B268013251
S3150FE12470B2600135B26871688A42F2D39D42D2D118
S3150FE1248001E00020F8BD38462946D4F88820FEF74A
S3150FE124901DFC9DF81830C4F8880023B1E06C39466D
S3150FE124A02A46FEF795FC9DF81C3043B194F843306C
S3150FE124B02BB1A06C39463A462B46FEF739FC94F818
S3150FE124C0433043B1E36DA26D2B449342E36524BFE1
S3150FE124D0002384F84330636D1D44656541F20300C3
S3150FE124E0F8BD000030B585B0002300930193154682
S3150FE124F0082302AA0446FFF787FF41F20303984236
S3150FE125003FD194F8433053B1E06C02A90822FEF7AC
S3150FE125105FFC02A9A06C0A460823FEF709FC9DF8A9
S3150FE125200A309DF80B209DF80F101B0443EA026356
S3150FE125309DF8082013439DF8092043EA02239DF8ED
S3150FE125400E202B60120442EA01629DF80C100A4339
S3150FE125509DF80D1042EA01226A6094F8432052B9C0
S3150FE12560094A934207D0094A934204D0E06C02A983
S3150FE125700822FEF72DFC6B6823650023636541F2A4
S3150FE12580030005B030BD00BFF70A0AF7FC0404FCEF
S3150FE125902DE9F843054658680F4616469846002832
S3150FE125A048D08B0744D1FFF791FD296E021D7418B0
S3150FE125B094421BD31C30814218D28A42134638BF4C
S3150FE125C00B46A04294BFC3EB0004C3EB0404591AB4
S3150FE125D0981A07EB0109683049462246284400F06C
S3150FE125E0FAFD4846FF21224600F000FEFFF774FD93
S3150FE125F0296E031D99420DD8741800F10802944211
S3150FE1260008D3581A3844FF210368C5F880300422ED
S3150FE1261000F0ECFD286ED8F80030D8F804403246C9
S3150FE126203946A0472B6E1E442E660020BDE8F8837F
S3150FE1263041F20200BDE8F88303F0200370B580F89C
S3150FE12640423015464FF0FF3300220446C0F888307A
S3150FE1265080F8462080F8402080F8412080F843201A
S3150FE1266080F8452080F84420026642660E4618221D
S3150FE12670FF21683000F0BAFDFF21042204F180004A
S3150FE1268000F0B4FD04F18400FF21042200F0AEFD59
S3150FE12690A664E564FFF718FD18B116B941F20B0010
S3150FE126A070BDFFF70FFD08B10DB9F7E715B1E06C96
S3150FE126B0FEF784FB002070BD2DE9F04F99B000269F
S3150FE126C0229D059204468846994606930796079AF0
S3150FE126D04A4580F06A8394F84630122BF8D8DFE842
S3150FE126E013F013002800000170013401E901AE0176
S3150FE126F0DD01E901D801E901D801AD0266032F0336
S3150FE1270037033B034D026603204605A903AAFFF7EC
S3150FE12710E9FE41F20303984240F04B83049B2365A4
S3150FE1272000236365039AAA4B9A4240F04A8102233A
S3150FE1273038E3204605A903AAFFF7D4FE41F20303C6
S3150FE12740984240F0368394F84420039B1AB1A14A8C
S3150FE1275093427AD035E194F8422012F0010F9E4A66
S3150FE1276049D094F84310002945D1934274D016D835
S3150FE127709A4A934200F0258105D8954A934200F093
S3150FE127802081974A1CE0974A934200F01A8102F1A1
S3150FE127900132934223D1122384F8463028E08D4A41
S3150FE127A0934217D007D8904A93420CD08F4A93425F
S3150FE127B015D10E23F6E28E4A934200F002818D4A3D
S3150FE127C093420CD1FDE00F2384F84630236DA365C8
S3150FE127D0E1657CE7FFF776FC002836D0F1E01223BE
S3150FE127E084F8463003A8FFF769FC002840F0EC8037
S3150FE127F041F20800DDE2934229D00AD8774A9342A3
S3150FE1280011D0784A934210D0754A934226D10623C6
S3150FE12810C8E2774A93420CD0764A934207D06D4A83
S3150FE1282093421BD107E00423BCE20723BAE2092353
S3150FE12830B8E20B23B6E2FFF745FC002840F0C18072
S3150FE1284094F84330002B40F0BC800C23AAE294F8B5
S3150FE128504330002B40F0B5801023A3E203A8FFF726
S3150FE128602DFCD0B11123039884F84630C4F88C00BF
S3150FE12870FFF726FC94F842309A0606467FF527AF16
S3150FE1288000283FF424AF4368002B3FF420AF2046E6
S3150FE12890984700283FF41BAF96E0122384F84630A1
S3150FE128A094F84330002BA3D041F2040081E29DF866
S3150FE128B026309DF827201B0443EA02639DF8242066
S3150FE128C013439DF8252043EA02230293DB0726D51E
S3150FE128D094F8423043F0010384F84230FFF7F2FBFC
S3150FE128E038BB636D072B4FF0010300F25B82009358
S3150FE128F0002301932046082305A908AAFFF784FDC3
S3150FE1290041F20303984240F054829DF82330032BA2
S3150FE12910CDD0122384F8463041F2090049E2FFF7A0
S3150FE12920D3FB0028DAD0122384F8463041F20A00AD
S3150FE129303FE2029BDF05F6D5D3E7052384F8463060
S3150FE12940012384F8453000236366636D072B3FF659
S3150FE12950BEAE0127082300970197204605A908AACD
S3150FE12960FFF752FD41F20303984240F022829DF8B0
S3150FE1297022309DF82320204988F800701B0443EA92
S3150FE1298002639DF8202013439DF8212043EA022399
S3150FE12990C8F804309DF826309DF827201B0443EA3A
S3150FE129A002639DF8242013439DF8252043EA022371
S3150FE129B0124A0293126810688842BED1D2689A42CF
S3150FE129C0BBD0122384F8463041F20100F1E100BF9A
S3150FE129D0EB17A603FC0404FCF70A0AF7F50909F558
S3150FE129E0F40A0AF4F60808F6F90707F9FA0606FAF9
S3150FE129F0FD0303FDFE0101FEAD1007B02800E10F57
S3150FE12A0000920192204605A908AAFFF7FDFC41F2C3
S3150FE12A100303984240F0CD8108AB08F108020DF1AE
S3150FE12A20380E1F4603CF7745106051603B4602F1E2
S3150FE12A300802F6D138681060012388F80130626D1B
S3150FE12A40236D9A424FF00102DAD384F846203EE62F
S3150FE12A500123009301932046042305A908AAFFF752
S3150FE12A60D3FC41F20303984240F0A3819DF8223053
S3150FE12A709DF823201B0443EA02639DF820201343AC
S3150FE12A809DF8212043EA0223226D0293042A88BF8F
S3150FE12A902366636D032BDBD90A2383E10023636688
S3150FE12AA008237FE10A2B4AD12046594652462B4647
S3150FE12AB0FFF76EFD626D236D9A4280F07281069982
S3150FE12AC007989B1A94F840200F1A032B174406D93F
S3150FE12AD0032F07D8204605A9FFF770FC65E19F4252
S3150FE12AE003D2F7E7402B28BF4023C0EB010A9244FC
S3150FE12AF09A4528BF9A46BAF1030F88BF2AF0030A0F
S3150FE12B0001230DF1200B009301932046534605A9AE
S3150FE12B105A46FFF779FC41F20303984240F04981A7
S3150FE12B2094F84630072B01D1AF68F7B9BAF1030F25
S3150FE12B30B8D8FF220BF80A200AF1010AF6E7052BAE
S3150FE12B40B8D1EB68002BB5D0606E04280CD80AEB30
S3150FE12B500003062B08D909AB181AFF210368C4F83D
S3150FE12B608430042200F042FBEF682B68606E594611
S3150FE12B705246B847636E534463669BE794F8423017
S3150FE12B80980630D5D4F88C00FFF79AFA064650BB73
S3150FE12B901AE799062ED56EB333695BB3204698478C
S3150FE12BA0069B079FDF1B94F840301F44874291D362
S3150FE12BB0626D236D9B1A402B28BF40239F4228BF8E
S3150FE12BC01F4601230093019320463B4605A908AA18
S3150FE12BD0FFF71AFC41F20303984240F0EA8094F8BA
S3150FE12BE042309A0608D4236D626D9A4294F84230C8
S3150FE12BF0CFD312E00120D3E7002E3FF4E5AED6F8AE
S3150FE12C0008C0BCF1000F3FF4DFAE204608A93A46F3
S3150FE12C102B46E0470028E6D0CBE09B0640F1C1808A
S3150FE12C20002E00F0BE80F368002B00F0BA8020463C
S3150FE12C3029469847002800F0B480BAE000230093B4
S3150FE12C4001932046042305A908AAFFF7DDFB41F20C
S3150FE12C500303984240F0AD80D4F88820564B9A4250
S3150FE12C6005D0122384F8463041F20500A1E0FFF7C3
S3150FE12C7029FA10B9012388F8033098F80330002BAD
S3150FE12C803DD094F845303BB1EE682EB1042004F106
S3150FE12C90840102462B68B047236E83B36B6873B327
S3150FE12CA018AF4FF0FF3347F8583D04F18009384626
S3150FE12CB04946042200F07FFA40B1FFF70DFA28B139
S3150FE12CC06E682B68043049460422B04704F1680662
S3150FE12CD038463146042200F06EFA80B16F68FFF78D
S3150FE12CE0F5F904F16C0114222B680830B8476F68C7
S3150FE12CF0FFF7ECF93146043004222B68B84701237C
S3150FE12D0088F802300D2384F846304EE00023019314
S3150FE12D1000971023204605A908AAFFF775FB41F294
S3150FE12D200303984245D1D4F848A0FFF7EBF9802386
S3150FE12D30009001935046022109AA3B46FDF7D4FFC5
S3150FE12D40636D0F2B4FF00107E0D984F84670BEE4AF
S3150FE12D50012384F8433025E094F844700FBB4023F8
S3150FE12D6000970197204605A908AAFFF74DFB41F207
S3150FE12D70030398421DD1E06CFEF72CF8E06C08A92D
S3150FE12D8010AAFDF7E5FF38B1122388F8037041F277
S3150FE12D90060084F846300CE0012388F8033084F806
S3150FE12DA04430012384F8463091E4002001E041F2FA
S3150FE12DB0070019B0BDE8F08FE320BBDEF0B51E4B7F
S3150FE12DC0446BA1B001AA064603F1100E1746186827
S3150FE12DD05968154603C5083373452A46F7D1204688
S3150FE12DE03946102200F0E7F918B96369012B20D1B2
S3150FE12DF0A469124B1B681B69A34219D8B44217D3B6
S3150FE12E00B4F5801F14D805A8FDF7D8FF3146A21BEC
S3150FE12E1005A8FDF7DDFF05A8FDF7DCFF05A82146AF
S3150FE12E2004F12002FDF794FFB0FA80F0400900E0CB
S3150FE12E30002021B0F0BD00BFB433E10F2808E10F48
S3150FE12E40144B1B682DE9F04116461A698242054675
S3150FE12E5088461DD85B698719BB4219D3C0F30A03AC
S3150FE12E600BB900F05CF905F5006424F4FF6424F076
S3150FE12E700704BC4205D2204600F051F904F500647F
S3150FE12E80F7E7284641463246BDE8F04100F055B92D
S3150FE12E90BDE8F0812808E10F194B1B682DE9F041D8
S3150FE12EA0884616461968174A914226D11D69164B6F
S3150FE12EB01B6805445A69AF19BA421ED310B918698E
S3150FE12EC000F02DF9C5F30A0313B9284600F027F9E7
S3150FE12ED005F5006424F4FF6424F00704BC4205D22F
S3150FE12EE0204600F01CF904F50064F7E72846414651
S3150FE12EF03246BDE8F04100F020B9BDE8F08100BFF0
S3150FE12F002800E10FAD1007B02808E10FF0B5284B07
S3150FE12F1085B004466A4603F110076E46186859688C
S3150FE12F20154603C50833BB422A46F7D123686268C3
S3150FE12F30656B03F16043B3F5802F33D81D4B1B68E7
S3150FE12F401B699A422ED3B2F5801F2BD840339D428F
S3150FE12F5002D3B5F5801F05D9FDF79EFE80F001007E
S3150FE12F60C0B222E0FDF798FE28B1204605B0BDE8D4
S3150FE12F70F040FFF723BF28463146102200F01BF938
S3150FE12F8090B96B6983B1022BEFD1A9690431204660
S3150FE12F90091B4FF0FF32FDF799FE074BC31A584253
S3150FE12FA0584102E0002000E0012005B0F0BD00BF6E
S3150FE12FB0B433E10F2808E10FE320BBDEB1F5BC7FA7
S3150FE12FC010B504460FD300214FF4BC7200F00EF991
S3150FE12FD004F1240004F1B40104F1FC020023BDE87D
S3150FE12FE01040FFF729BB40F2052010BD13B504468B
S3150FE12FF0009124302146FFF75FFBC4F8740118B145
S3150FE1300041F2070398420DD1A3784BB1E07840F234
S3150FE13010022240F20323002814BF1846104601E0AE
S3150FE1302040F2012002B010BD4FF000534FF20F02F4
S3150FE1303018805A8070474FF000534CF23C325A8059
S3150FE13040704700004FF000534FF20F025A800A4AC1
S3150FE130501880136823F4E06343F480631360BFF3CE
S3150FE130604F8F0649064BCA6802F4E0621343CB6001
S3150FE13070BFF34F8F00BFFDE700500E4000ED00E0BC
S3150FE130800400FA054FF000534FF20F015A888A42B6
S3150FE1309001D1188870473AB91B88012B40F20220FB
S3150FE130A018BF4FF4007070474FF4007070474FF040
S3150FE130B00053188870470000044B41F671321A64C9
S3150FE130C09A6822F001029A60704700BF00000E4035
S3150FE130D0034B9A6822F001029A6000221A64704744
S3150FE130E000000E4013B5830745BF09046FEA11418E
S3150FE130F06FEA01416FEA014158BF6FEA114120F0D2
S3150FE1310003040191FFF7D8FF01A904222046FEF738
S3150FE1311065FC0446FFF7DCFF204602B010BD10B593
S3150FE131200446FFF7C9FF2046FEF71CFC0446FFF7EE
S3150FE13130CFFFB4FA84F0400910BD40EA02032DE94E
S3150FE13140F0411446DA0705460E4602D50020BDE8E2
S3150FE13150F08114B90120BDE8F081830728D50988EC
S3150FE13160FFF7C0FF0028F1D1023C032C05F1020560
S3150FE1317006F1020611D924F00307FFF79DFF284652
S3150FE1318031463A46FEF72AFC8046FFF7A1FFB8F132
S3150FE13190000FDBD13E443D44E41B002CDAD0284638
S3150FE131A03188FFF79FFFB0FA80F04009BDE8F08163
S3150FE131B0032CF4D9DFE710B50A44441E914208D037
S3150FE131C014F8013F0878834201D0181A10BD013176
S3150FE131D0F4E7002010BD10B5431E0A44914204D016
S3150FE131E011F8014B03F8014FF8E710BD024403460E
S3150FE131F0934202D003F8011BFAE77047F8B500BF17
S3150FE13200F8BC08BC9E467047F8B500BFF8BC08BCD1
S3150FE132109E46704700000000412EE10F00000000BE
S3150FE13220992EE10F07B0CD5E010000000000050108
S3150FE13230F82B00000000000000001000F000100065
S3150FE13240390BE10F3D0BE10F0D2FE10FBD2FE10F14
S3150FE13250ED2FE10F0000000020000000000100004B
S3150FE13260050C0000FFFFFFFFFFFFFFFFFFFFFFFF63
S3150FE132700000000000000000000000000100000057
S3150FE13280FFFFFFFF512563FCC2CAB9F3849E17A75F
S3150FE13290ADFAE6BCFFFFFFFFFFFFFFFF00000000F7
S3150FE132A0FFFFFFFF96C298D84539A1F4A033EB2D66
S3150FE132B0817D0377F240A463E5E6BCF847422CE152
S3150FE132C0F2D1176BF551BF376840B6CBCE5E316B96
S3150FE132D05733CE2B169E0F7C4AEBE78E9B7F1AFE5A
S3150FE132E0E242E34F00000F400000000000040F40F0
S3150FE132F001000000D89E05C107D57C3617DD703079
S3150FE1330039590EF7310BC0FF11155868A78FF964BC
S3150FE13310A44FFABE8000000000000000000000008C
S3150FE1332000000000000000000000000000000000A7
S3150FE133300000000000000000000000000000000097
S3150FE133400000000000000000000000000000000087
S3150FE133500000000067E6096A85AE67BB72F36E3C53
S3150FE133603AF54FA57F520E518C68059BABD9831F5A
S3150FE1337019CDE05BF00F10031C000140580100204E
S3150FE133801300000009000000000100000202000026
S3150FE1339013000000F00F10031C000140580200203B
S3150FE133A01300000009000000000200000101000007
S3150FE133B0D3FFFFFF13B779FAC925DDB7ADF3CFE039
S3150FE133C0F1B614B8000000000080000000F04902D9
S3150FE133D0C0EA2101C0EA2101F07F10305903002034
S3150FE133E034000140000000006508E10F4108E10FDC
S3090FE133F000000000E3
S5030320D9
S70500000000FA
